{
  "_format": "hh-sol-artifact-1",
  "contractName": "DAOVaultMediumUSDT",
  "sourceName": "contracts/vaults/DAOVaultMediumUSDT.sol",
  "abi": [
    {
      "inputs": [
        {
          "internalType": "address",
          "name": "_token",
          "type": "address"
        },
        {
          "internalType": "address",
          "name": "_strategy",
          "type": "address"
        }
      ],
      "stateMutability": "nonpayable",
      "type": "constructor"
    },
    {
      "anonymous": false,
      "inputs": [
        {
          "indexed": true,
          "internalType": "address",
          "name": "owner",
          "type": "address"
        },
        {
          "indexed": true,
          "internalType": "address",
          "name": "spender",
          "type": "address"
        },
        {
          "indexed": false,
          "internalType": "uint256",
          "name": "value",
          "type": "uint256"
        }
      ],
      "name": "Approval",
      "type": "event"
    },
    {
      "anonymous": false,
      "inputs": [
        {
          "indexed": true,
          "internalType": "address",
          "name": "fromStrategy",
          "type": "address"
        },
        {
          "indexed": true,
          "internalType": "address",
          "name": "toStrategy",
          "type": "address"
        },
        {
          "indexed": false,
          "internalType": "uint256",
          "name": "amount",
          "type": "uint256"
        }
      ],
      "name": "MigrateFunds",
      "type": "event"
    },
    {
      "anonymous": false,
      "inputs": [
        {
          "indexed": true,
          "internalType": "address",
          "name": "previousOwner",
          "type": "address"
        },
        {
          "indexed": true,
          "internalType": "address",
          "name": "newOwner",
          "type": "address"
        }
      ],
      "name": "OwnershipTransferred",
      "type": "event"
    },
    {
      "anonymous": false,
      "inputs": [
        {
          "indexed": true,
          "internalType": "address",
          "name": "from",
          "type": "address"
        },
        {
          "indexed": true,
          "internalType": "address",
          "name": "to",
          "type": "address"
        },
        {
          "indexed": false,
          "internalType": "uint256",
          "name": "value",
          "type": "uint256"
        }
      ],
      "name": "Transfer",
      "type": "event"
    },
    {
      "inputs": [],
      "name": "LOCKTIME",
      "outputs": [
        {
          "internalType": "uint256",
          "name": "",
          "type": "uint256"
        }
      ],
      "stateMutability": "view",
      "type": "function"
    },
    {
      "inputs": [
        {
          "internalType": "address",
          "name": "owner",
          "type": "address"
        },
        {
          "internalType": "address",
          "name": "spender",
          "type": "address"
        }
      ],
      "name": "allowance",
      "outputs": [
        {
          "internalType": "uint256",
          "name": "",
          "type": "uint256"
        }
      ],
      "stateMutability": "view",
      "type": "function"
    },
    {
      "inputs": [
        {
          "internalType": "address",
          "name": "spender",
          "type": "address"
        },
        {
          "internalType": "uint256",
          "name": "amount",
          "type": "uint256"
        }
      ],
      "name": "approve",
      "outputs": [
        {
          "internalType": "bool",
          "name": "",
          "type": "bool"
        }
      ],
      "stateMutability": "nonpayable",
      "type": "function"
    },
    {
      "inputs": [
        {
          "internalType": "address",
          "name": "account",
          "type": "address"
        }
      ],
      "name": "balanceOf",
      "outputs": [
        {
          "internalType": "uint256",
          "name": "",
          "type": "uint256"
        }
      ],
      "stateMutability": "view",
      "type": "function"
    },
    {
      "inputs": [],
      "name": "canSetPendingStrategy",
      "outputs": [
        {
          "internalType": "bool",
          "name": "",
          "type": "bool"
        }
      ],
      "stateMutability": "view",
      "type": "function"
    },
    {
      "inputs": [],
      "name": "decimals",
      "outputs": [
        {
          "internalType": "uint8",
          "name": "",
          "type": "uint8"
        }
      ],
      "stateMutability": "view",
      "type": "function"
    },
    {
      "inputs": [
        {
          "internalType": "address",
          "name": "spender",
          "type": "address"
        },
        {
          "internalType": "uint256",
          "name": "subtractedValue",
          "type": "uint256"
        }
      ],
      "name": "decreaseAllowance",
      "outputs": [
        {
          "internalType": "bool",
          "name": "",
          "type": "bool"
        }
      ],
      "stateMutability": "nonpayable",
      "type": "function"
    },
    {
      "inputs": [
        {
          "internalType": "uint256[]",
          "name": "_amounts",
          "type": "uint256[]"
        }
      ],
      "name": "deposit",
      "outputs": [],
      "stateMutability": "nonpayable",
      "type": "function"
    },
    {
      "inputs": [
        {
          "internalType": "address",
          "name": "spender",
          "type": "address"
        },
        {
          "internalType": "uint256",
          "name": "addedValue",
          "type": "uint256"
        }
      ],
      "name": "increaseAllowance",
      "outputs": [
        {
          "internalType": "bool",
          "name": "",
          "type": "bool"
        }
      ],
      "stateMutability": "nonpayable",
      "type": "function"
    },
    {
      "inputs": [],
      "name": "migrateFunds",
      "outputs": [],
      "stateMutability": "nonpayable",
      "type": "function"
    },
    {
      "inputs": [],
      "name": "name",
      "outputs": [
        {
          "internalType": "string",
          "name": "",
          "type": "string"
        }
      ],
      "stateMutability": "view",
      "type": "function"
    },
    {
      "inputs": [],
      "name": "owner",
      "outputs": [
        {
          "internalType": "address",
          "name": "",
          "type": "address"
        }
      ],
      "stateMutability": "view",
      "type": "function"
    },
    {
      "inputs": [],
      "name": "pendingStrategy",
      "outputs": [
        {
          "internalType": "address",
          "name": "",
          "type": "address"
        }
      ],
      "stateMutability": "view",
      "type": "function"
    },
    {
      "inputs": [],
      "name": "refund",
      "outputs": [],
      "stateMutability": "nonpayable",
      "type": "function"
    },
    {
      "inputs": [],
      "name": "renounceOwnership",
      "outputs": [],
      "stateMutability": "nonpayable",
      "type": "function"
    },
    {
      "inputs": [
        {
          "internalType": "address",
          "name": "_pendingStrategy",
          "type": "address"
        }
      ],
      "name": "setPendingStrategy",
      "outputs": [],
      "stateMutability": "nonpayable",
      "type": "function"
    },
    {
      "inputs": [],
      "name": "strategy",
      "outputs": [
        {
          "internalType": "contract IStrategy",
          "name": "",
          "type": "address"
        }
      ],
      "stateMutability": "view",
      "type": "function"
    },
    {
      "inputs": [],
      "name": "symbol",
      "outputs": [
        {
          "internalType": "string",
          "name": "",
          "type": "string"
        }
      ],
      "stateMutability": "view",
      "type": "function"
    },
    {
      "inputs": [],
      "name": "token",
      "outputs": [
        {
          "internalType": "contract IERC20",
          "name": "",
          "type": "address"
        }
      ],
      "stateMutability": "view",
      "type": "function"
    },
    {
      "inputs": [],
      "name": "totalSupply",
      "outputs": [
        {
          "internalType": "uint256",
          "name": "",
          "type": "uint256"
        }
      ],
      "stateMutability": "view",
      "type": "function"
    },
    {
      "inputs": [
        {
          "internalType": "address",
          "name": "recipient",
          "type": "address"
        },
        {
          "internalType": "uint256",
          "name": "amount",
          "type": "uint256"
        }
      ],
      "name": "transfer",
      "outputs": [
        {
          "internalType": "bool",
          "name": "",
          "type": "bool"
        }
      ],
      "stateMutability": "nonpayable",
      "type": "function"
    },
    {
      "inputs": [
        {
          "internalType": "address",
          "name": "sender",
          "type": "address"
        },
        {
          "internalType": "address",
          "name": "recipient",
          "type": "address"
        },
        {
          "internalType": "uint256",
          "name": "amount",
          "type": "uint256"
        }
      ],
      "name": "transferFrom",
      "outputs": [
        {
          "internalType": "bool",
          "name": "",
          "type": "bool"
        }
      ],
      "stateMutability": "nonpayable",
      "type": "function"
    },
    {
      "inputs": [
        {
          "internalType": "address",
          "name": "newOwner",
          "type": "address"
        }
      ],
      "name": "transferOwnership",
      "outputs": [],
      "stateMutability": "nonpayable",
      "type": "function"
    },
    {
      "inputs": [],
      "name": "unlockMigrateFunds",
      "outputs": [],
      "stateMutability": "nonpayable",
      "type": "function"
    },
    {
      "inputs": [],
      "name": "unlockTime",
      "outputs": [
        {
          "internalType": "uint256",
          "name": "",
          "type": "uint256"
        }
      ],
      "stateMutability": "view",
      "type": "function"
    },
    {
      "inputs": [
        {
          "internalType": "uint256[]",
          "name": "_shares",
          "type": "uint256[]"
        }
      ],
      "name": "withdraw",
      "outputs": [],
      "stateMutability": "nonpayable",
      "type": "function"
    }
  ],
  "bytecode": "0x60806040526008805460ff60a01b1916600160a01b1790553480156200002457600080fd5b50604051620023f9380380620023f9833981810160405260408110156200004a57600080fd5b508051602091820151604080518082018252601581527f44414f205661756c74204d656469756d2055534454000000000000000000000081860190815282518084019093526007835266191d9b5554d11560ca1b958301959095528051939492939092620000bc91600391906200019c565b508051620000d29060049060208401906200019c565b50506005805460ff19166012179055506000620000ee62000182565b60058054610100600160a81b0319166101006001600160a01b03841690810291909117909155604051919250906000907f8be0079c531659141344cd1fd0a4f28419497f9722a3daafe3b4186f6b6457e0908290a35062000150600662000186565b600680546001600160a01b039384166001600160a01b0319918216179091556007805492909316911617905562000248565b3390565b6005805460ff191660ff92909216919091179055565b828054600181600116156101000203166002900490600052602060002090601f016020900481019282620001d457600085556200021f565b82601f10620001ef57805160ff19168380011785556200021f565b828001600101855582156200021f579182015b828111156200021f57825182559160200191906001019062000202565b506200022d92915062000231565b5090565b5b808211156200022d576000815560010162000232565b6121a180620002586000396000f3fe608060405234801561001057600080fd5b50600436106101ae5760003560e01c8063715018a6116100ee578063a457c2d711610097578063dd62ed3e11610071578063dd62ed3e14610562578063f2fde38b14610590578063f99bab24146105b6578063fc0c546a146105be576101ae565b8063a457c2d714610502578063a8c62e761461052e578063a9059cbb14610536576101ae565b80639580c4bc116100c85780639580c4bc1461044f57806395d89b4114610457578063983d95ce1461045f576101ae565b8063715018a614610437578063854ab6df1461043f5780638da5cb5b14610447576101ae565b8063251c1aa31161015b578063465fc5d211610135578063465fc5d214610342578063590e1ae314610366578063598b8e711461036e57806370a0823114610411576101ae565b8063251c1aa3146102f0578063313ce567146102f85780633950935114610316576101ae565b80631a8f0c0a1161018c5780631a8f0c0a1461028a57806323b872dd146102b2578063242c8e69146102e8576101ae565b806306fdde03146101b3578063095ea7b31461023057806318160ddd14610270575b600080fd5b6101bb6105c6565b6040805160208082528351818301528351919283929083019185019080838360005b838110156101f55781810151838201526020016101dd565b50505050905090810190601f1680156102225780820380516001836020036101000a031916815260200191505b509250505060405180910390f35b61025c6004803603604081101561024657600080fd5b506001600160a01b03813516906020013561065c565b604080519115158252519081900360200190f35b610278610679565b60408051918252519081900360200190f35b6102b0600480360360208110156102a057600080fd5b50356001600160a01b031661067f565b005b61025c600480360360608110156102c857600080fd5b506001600160a01b038135811691602081013590911690604001356107ed565b610278610875565b61027861087c565b610300610882565b6040805160ff9092168252519081900360200190f35b61025c6004803603604081101561032c57600080fd5b506001600160a01b03813516906020013561088b565b61034a6108d9565b604080516001600160a01b039092168252519081900360200190f35b6102b06108e8565b6102b06004803603602081101561038457600080fd5b81019060208101813564010000000081111561039f57600080fd5b8201836020820111156103b157600080fd5b803590602001918460208302840111640100000000831117156103d357600080fd5b919080806020026020016040519081016040528093929190818152602001838360200280828437600092019190915250929550610b27945050505050565b6102786004803603602081101561042757600080fd5b50356001600160a01b0316610d41565b6102b0610d5c565b61025c610e2d565b61034a610e3d565b6102b0610e51565b6101bb61123e565b6102b06004803603602081101561047557600080fd5b81019060208101813564010000000081111561049057600080fd5b8201836020820111156104a257600080fd5b803590602001918460208302840111640100000000831117156104c457600080fd5b91908080602002602001604051908101604052809392919081815260200183836020028082843760009201919091525092955061129f945050505050565b61025c6004803603604081101561051857600080fd5b506001600160a01b038135169060200135611400565b61034a611468565b61025c6004803603604081101561054c57600080fd5b506001600160a01b038135169060200135611477565b6102786004803603604081101561057857600080fd5b506001600160a01b038135811691602001351661148b565b6102b0600480360360208110156105a657600080fd5b50356001600160a01b03166114b6565b6102b06115e3565b61034a61168a565b60038054604080516020601f60026000196101006001881615020190951694909404938401819004810282018101909252828152606093909290918301828280156106525780601f1061062757610100808354040283529160200191610652565b820191906000526020600020905b81548152906001019060200180831161063557829003601f168201915b5050505050905090565b6000610670610669611699565b848461169d565b50600192915050565b60025490565b610687611699565b6001600160a01b0316610698610e3d565b6001600160a01b0316146106f3576040805162461bcd60e51b815260206004820181905260248201527f4f776e61626c653a2063616c6c6572206973206e6f7420746865206f776e6572604482015290519081900360640190fd5b600854600160a01b900460ff161515600114610756576040805162461bcd60e51b815260206004820152601f60248201527f43616e6e6f74207365742070656e64696e67207374726174656779206e6f7700604482015290519081900360640190fd5b610768816001600160a01b0316611789565b15156001146107be576040805162461bcd60e51b815260206004820152601c60248201527f4e6577207374726174656779206973206e6f7420636f6e747261637400000000604482015290519081900360640190fd5b6008805473ffffffffffffffffffffffffffffffffffffffff19166001600160a01b0392909216919091179055565b60006107fa84848461178f565b61086a84610806611699565b6108658560405180606001604052806028815260200161208b602891396001600160a01b038a16600090815260016020526040812090610844611699565b6001600160a01b0316815260208101919091526040016000205491906118ea565b61169d565b5060015b9392505050565b6202a30081565b60095481565b60055460ff1690565b6000610670610898611699565b8461086585600160006108a9611699565b6001600160a01b03908116825260208083019390935260409182016000908120918c168152925290205490611981565b6008546001600160a01b031681565b6108f133611789565b1561092e576040805162461bcd60e51b81526020600482015260086024820152674f6e6c7920454f4160c01b604482015290519081900360640190fd5b600061093933610d41565b1161098b576040805162461bcd60e51b815260206004820152601460248201527f4e6f2062616c616e636520746f20726566756e64000000000000000000000000604482015290519081900360640190fd5b600061099633610d41565b600754604080516370a0823160e01b815230600482015290519293506000926001600160a01b03909216916370a0823191602480820192602092909190829003018186803b1580156109e757600080fd5b505afa1580156109fb573d6000803e3d6000fd5b505050506040513d6020811015610a1157600080fd5b5051600754604080517f278ecde10000000000000000000000000000000000000000000000000000000081526004810186905290519293506001600160a01b039091169163278ecde19160248082019260009290919082900301818387803b158015610a7c57600080fd5b505af1158015610a90573d6000803e3d6000fd5b5050600754604080516370a0823160e01b81523060048201529051600094506001600160a01b0390921692506370a08231916024808301926020929190829003018186803b158015610ae157600080fd5b505afa158015610af5573d6000803e3d6000fd5b505050506040513d6020811015610b0b57600080fd5b50519050610b2233610b1d84846119db565b611a38565b505050565b610b3033611789565b15610b6d576040805162461bcd60e51b81526020600482015260086024820152674f6e6c7920454f4160c01b604482015290519081900360640190fd5b600754604080516370a0823160e01b815230600482015290516000926001600160a01b0316916370a08231916024808301926020929190829003018186803b158015610bb857600080fd5b505afa158015610bcc573d6000803e3d6000fd5b505050506040513d6020811015610be257600080fd5b50516007546040517f598b8e710000000000000000000000000000000000000000000000000000000081526020600482018181528651602484015286519495506001600160a01b039093169363598b8e7193879390928392604490920191858201910280838360005b83811015610c63578181015183820152602001610c4b565b5050505090500192505050600060405180830381600087803b158015610c8857600080fd5b505af1158015610c9c573d6000803e3d6000fd5b5050600754604080516370a0823160e01b81523060048201529051600094506001600160a01b0390921692506370a08231916024808301926020929190829003018186803b158015610ced57600080fd5b505afa158015610d01573d6000803e3d6000fd5b505050506040513d6020811015610d1757600080fd5b5051905081811115610b22576000610d2f82846119db565b9050610d3b3382611b34565b50505050565b6001600160a01b031660009081526020819052604090205490565b610d64611699565b6001600160a01b0316610d75610e3d565b6001600160a01b031614610dd0576040805162461bcd60e51b815260206004820181905260248201527f4f776e61626c653a2063616c6c6572206973206e6f7420746865206f776e6572604482015290519081900360640190fd5b60055460405160009161010090046001600160a01b0316907f8be0079c531659141344cd1fd0a4f28419497f9722a3daafe3b4186f6b6457e0908390a36005805474ffffffffffffffffffffffffffffffffffffffff0019169055565b600854600160a01b900460ff1681565b60055461010090046001600160a01b031690565b610e59611699565b6001600160a01b0316610e6a610e3d565b6001600160a01b031614610ec5576040805162461bcd60e51b815260206004820181905260248201527f4f776e61626c653a2063616c6c6572206973206e6f7420746865206f776e6572604482015290519081900360640190fd5b4260095411158015610ede575042600954620151800110155b610f2f576040805162461bcd60e51b815260206004820152600f60248201527f46756e6374696f6e206c6f636b65640000000000000000000000000000000000604482015290519081900360640190fd5b600654600754604080516370a0823160e01b81526001600160a01b039283166004820152905160009392909216916370a0823191602480820192602092909190829003018186803b158015610f8357600080fd5b505afa158015610f97573d6000803e3d6000fd5b505050506040513d6020811015610fad57600080fd5b505111611001576040805162461bcd60e51b815260206004820152601560248201527f4e6f2062616c616e636520746f206d6967726174650000000000000000000000604482015290519081900360640190fd5b6008546001600160a01b031661105e576040805162461bcd60e51b815260206004820152601260248201527f4e6f2070656e64696e6753747261746567790000000000000000000000000000604482015290519081900360640190fd5b600654600754604080516370a0823160e01b81526001600160a01b039283166004820152905160009392909216916370a0823191602480820192602092909190829003018186803b1580156110b257600080fd5b505afa1580156110c6573d6000803e3d6000fd5b505050506040513d60208110156110dc57600080fd5b50516008546007546040805184815290519394506001600160a01b039283169391909216917f77e495c0e82622b2e795fb14f2a956e1dd14664ea8dbc629c12f4859b416aaea919081900360200190a3600754600854600654611150926001600160a01b0391821692908216911684611c24565b600754604080516370a0823160e01b815230600482015290516001600160a01b03909216916111df91839182916370a08231916024808301926020929190829003018186803b1580156111a257600080fd5b505afa1580156111b6573d6000803e3d6000fd5b505050506040513d60208110156111cc57600080fd5b50516001600160a01b0384169190611cac565b5050600880546007805473ffffffffffffffffffffffffffffffffffffffff19166001600160a01b0383161790557fffffffffffffffffffffff00000000000000000000000000000000000000000016600160a01b1790556000600955565b60048054604080516020601f60026000196101006001881615020190951694909404938401819004810282018101909252828152606093909290918301828280156106525780601f1061062757610100808354040283529160200191610652565b6112a833611789565b156112e5576040805162461bcd60e51b81526020600482015260086024820152674f6e6c7920454f4160c01b604482015290519081900360640190fd5b600754604080516370a0823160e01b815230600482015290516000926001600160a01b0316916370a08231916024808301926020929190829003018186803b15801561133057600080fd5b505afa158015611344573d6000803e3d6000fd5b505050506040513d602081101561135a57600080fd5b50516007546040517f983d95ce0000000000000000000000000000000000000000000000000000000081526020600482018181528651602484015286519495506001600160a01b039093169363983d95ce93879390928392604490920191858201910280838360005b838110156113db5781810151838201526020016113c3565b5050505090500192505050600060405180830381600087803b158015610a7c57600080fd5b600061067061140d611699565b84610865856040518060600160405280602581526020016121476025913960016000611437611699565b6001600160a01b03908116825260208083019390935260409182016000908120918d168152925290205491906118ea565b6007546001600160a01b031681565b6000610670611484611699565b848461178f565b6001600160a01b03918216600090815260016020908152604080832093909416825291909152205490565b6114be611699565b6001600160a01b03166114cf610e3d565b6001600160a01b03161461152a576040805162461bcd60e51b815260206004820181905260248201527f4f776e61626c653a2063616c6c6572206973206e6f7420746865206f776e6572604482015290519081900360640190fd5b6001600160a01b03811661156f5760405162461bcd60e51b8152600401808060200182810382526026815260200180611ff76026913960400191505060405180910390fd5b6005546040516001600160a01b0380841692610100900416907f8be0079c531659141344cd1fd0a4f28419497f9722a3daafe3b4186f6b6457e090600090a3600580546001600160a01b039092166101000274ffffffffffffffffffffffffffffffffffffffff0019909216919091179055565b6115eb611699565b6001600160a01b03166115fc610e3d565b6001600160a01b031614611657576040805162461bcd60e51b815260206004820181905260248201527f4f776e61626c653a2063616c6c6572206973206e6f7420746865206f776e6572604482015290519081900360640190fd5b426202a30001600955600880547fffffffffffffffffffffff00ffffffffffffffffffffffffffffffffffffffff169055565b6006546001600160a01b031681565b3390565b6001600160a01b0383166116e25760405162461bcd60e51b81526004018080602001828103825260248152602001806120f96024913960400191505060405180910390fd5b6001600160a01b0382166117275760405162461bcd60e51b815260040180806020018281038252602281526020018061201d6022913960400191505060405180910390fd5b6001600160a01b03808416600081815260016020908152604080832094871680845294825291829020859055815185815291517f8c5be1e5ebec7d5bd14f71427d1e84f3dd0314c0f7b2291e5b200ac8c7c3b9259281900390910190a3505050565b3b151590565b6001600160a01b0383166117d45760405162461bcd60e51b81526004018080602001828103825260258152602001806120d46025913960400191505060405180910390fd5b6001600160a01b0382166118195760405162461bcd60e51b8152600401808060200182810382526023815260200180611fb26023913960400191505060405180910390fd5b611824838383610b22565b6118618160405180606001604052806026815260200161203f602691396001600160a01b03861660009081526020819052604090205491906118ea565b6001600160a01b0380851660009081526020819052604080822093909355908416815220546118909082611981565b6001600160a01b038084166000818152602081815260409182902094909455805185815290519193928716927fddf252ad1be2c89b69c2b068fc378daa952ba7f163c4a11628f55a4df523b3ef92918290030190a3505050565b600081848411156119795760405162461bcd60e51b81526004018080602001828103825283818151815260200191508051906020019080838360005b8381101561193e578181015183820152602001611926565b50505050905090810190601f16801561196b5780820380516001836020036101000a031916815260200191505b509250505060405180910390fd5b505050900390565b60008282018381101561086e576040805162461bcd60e51b815260206004820152601b60248201527f536166654d6174683a206164646974696f6e206f766572666c6f770000000000604482015290519081900360640190fd5b600082821115611a32576040805162461bcd60e51b815260206004820152601e60248201527f536166654d6174683a207375627472616374696f6e206f766572666c6f770000604482015290519081900360640190fd5b50900390565b6001600160a01b038216611a7d5760405162461bcd60e51b81526004018080602001828103825260218152602001806120b36021913960400191505060405180910390fd5b611a8982600083610b22565b611ac681604051806060016040528060228152602001611fd5602291396001600160a01b03851660009081526020819052604090205491906118ea565b6001600160a01b038316600090815260208190526040902055600254611aec90826119db565b6002556040805182815290516000916001600160a01b038516917fddf252ad1be2c89b69c2b068fc378daa952ba7f163c4a11628f55a4df523b3ef9181900360200190a35050565b6001600160a01b038216611b8f576040805162461bcd60e51b815260206004820152601f60248201527f45524332303a206d696e7420746f20746865207a65726f206164647265737300604482015290519081900360640190fd5b611b9b60008383610b22565b600254611ba89082611981565b6002556001600160a01b038216600090815260208190526040902054611bce9082611981565b6001600160a01b0383166000818152602081815260408083209490945583518581529351929391927fddf252ad1be2c89b69c2b068fc378daa952ba7f163c4a11628f55a4df523b3ef9281900390910190a35050565b604080516001600160a01b0380861660248301528416604482015260648082018490528251808303909101815260849091019091526020810180517bffffffffffffffffffffffffffffffffffffffffffffffffffffffff167f23b872dd00000000000000000000000000000000000000000000000000000000179052610d3b908590611d28565b604080516001600160a01b038416602482015260448082018490528251808303909101815260649091019091526020810180517bffffffffffffffffffffffffffffffffffffffffffffffffffffffff167fa9059cbb00000000000000000000000000000000000000000000000000000000179052610b229084905b6000611d7d826040518060400160405280602081526020017f5361666545524332303a206c6f772d6c6576656c2063616c6c206661696c6564815250856001600160a01b0316611dd99092919063ffffffff16565b805190915015610b2257808060200190516020811015611d9c57600080fd5b5051610b225760405162461bcd60e51b815260040180806020018281038252602a81526020018061211d602a913960400191505060405180910390fd5b6060611de88484600085611df0565b949350505050565b606082471015611e315760405162461bcd60e51b81526004018080602001828103825260268152602001806120656026913960400191505060405180910390fd5b611e3a85611789565b611e8b576040805162461bcd60e51b815260206004820152601d60248201527f416464726573733a2063616c6c20746f206e6f6e2d636f6e7472616374000000604482015290519081900360640190fd5b600080866001600160a01b031685876040518082805190602001908083835b60208310611ec95780518252601f199092019160209182019101611eaa565b6001836020036101000a03801982511681845116808217855250505050505090500191505060006040518083038185875af1925050503d8060008114611f2b576040519150601f19603f3d011682016040523d82523d6000602084013e611f30565b606091505b5091509150611f40828286611f4b565b979650505050505050565b60608315611f5a57508161086e565b825115611f6a5782518084602001fd5b60405162461bcd60e51b815260206004820181815284516024840152845185939192839260440191908501908083836000831561193e57818101518382015260200161192656fe45524332303a207472616e7366657220746f20746865207a65726f206164647265737345524332303a206275726e20616d6f756e7420657863656564732062616c616e63654f776e61626c653a206e6577206f776e657220697320746865207a65726f206164647265737345524332303a20617070726f766520746f20746865207a65726f206164647265737345524332303a207472616e7366657220616d6f756e7420657863656564732062616c616e6365416464726573733a20696e73756666696369656e742062616c616e636520666f722063616c6c45524332303a207472616e7366657220616d6f756e74206578636565647320616c6c6f77616e636545524332303a206275726e2066726f6d20746865207a65726f206164647265737345524332303a207472616e736665722066726f6d20746865207a65726f206164647265737345524332303a20617070726f76652066726f6d20746865207a65726f20616464726573735361666545524332303a204552433230206f7065726174696f6e20646964206e6f74207375636365656445524332303a2064656372656173656420616c6c6f77616e63652062656c6f77207a65726fa26469706673582212202d7258adb54b9f4df28d4397de2f1e4e0d28a6a91e0b0c42a897741736e2565064736f6c63430007060033",
  "linkReferences": {},
  "deployedLinkReferences": {}
}