{
  "_format": "hh-sol-artifact-1",
  "contractName": "YearnFarmerDAIv2",
  "sourceName": "contracts/strategies/YearnFarmerDAIv2.sol",
  "abi": [
    {
      "inputs": [
        {
          "internalType": "address",
          "name": "_token",
          "type": "address"
        },
        {
          "internalType": "address",
          "name": "_earn",
          "type": "address"
        },
        {
          "internalType": "address",
          "name": "_vault",
          "type": "address"
        }
      ],
      "stateMutability": "nonpayable",
      "type": "constructor"
    },
    {
      "anonymous": false,
      "inputs": [
        {
          "indexed": true,
          "internalType": "address",
          "name": "owner",
          "type": "address"
        },
        {
          "indexed": true,
          "internalType": "address",
          "name": "spender",
          "type": "address"
        },
        {
          "indexed": false,
          "internalType": "uint256",
          "name": "value",
          "type": "uint256"
        }
      ],
      "name": "Approval",
      "type": "event"
    },
    {
      "anonymous": false,
      "inputs": [
        {
          "indexed": true,
          "internalType": "address",
          "name": "previousOwner",
          "type": "address"
        },
        {
          "indexed": true,
          "internalType": "address",
          "name": "newOwner",
          "type": "address"
        }
      ],
      "name": "OwnershipTransferred",
      "type": "event"
    },
    {
      "anonymous": false,
      "inputs": [
        {
          "indexed": true,
          "internalType": "address",
          "name": "oldCommunityWallet",
          "type": "address"
        },
        {
          "indexed": true,
          "internalType": "address",
          "name": "newCommunityWallet",
          "type": "address"
        }
      ],
      "name": "SetCommunityWallet",
      "type": "event"
    },
    {
      "anonymous": false,
      "inputs": [
        {
          "indexed": false,
          "internalType": "uint256",
          "name": "oldCustomNetworkFeePercentage",
          "type": "uint256"
        },
        {
          "indexed": false,
          "internalType": "uint256",
          "name": "newCustomNetworkFeePercentage",
          "type": "uint256"
        }
      ],
      "name": "SetCustomNetworkFeePercentage",
      "type": "event"
    },
    {
      "anonymous": false,
      "inputs": [
        {
          "indexed": false,
          "internalType": "uint256",
          "name": "oldCustomNetworkFeeTier",
          "type": "uint256"
        },
        {
          "indexed": false,
          "internalType": "uint256",
          "name": "newCustomNetworkFeeTier",
          "type": "uint256"
        }
      ],
      "name": "SetCustomNetworkFeeTier",
      "type": "event"
    },
    {
      "anonymous": false,
      "inputs": [
        {
          "indexed": false,
          "internalType": "uint256[]",
          "name": "oldNetworkFeePercentage",
          "type": "uint256[]"
        },
        {
          "indexed": false,
          "internalType": "uint256[]",
          "name": "newNetworkFeePercentage",
          "type": "uint256[]"
        }
      ],
      "name": "SetNetworkFeePercentage",
      "type": "event"
    },
    {
      "anonymous": false,
      "inputs": [
        {
          "indexed": false,
          "internalType": "uint256[]",
          "name": "oldNetworkFeeTier2",
          "type": "uint256[]"
        },
        {
          "indexed": false,
          "internalType": "uint256[]",
          "name": "newNetworkFeeTier2",
          "type": "uint256[]"
        }
      ],
      "name": "SetNetworkFeeTier2",
      "type": "event"
    },
    {
      "anonymous": false,
      "inputs": [
        {
          "indexed": true,
          "internalType": "uint256",
          "name": "oldProfileSharingFeePercentage",
          "type": "uint256"
        },
        {
          "indexed": true,
          "internalType": "uint256",
          "name": "newProfileSharingFeePercentage",
          "type": "uint256"
        }
      ],
      "name": "SetProfileSharingFeePercentage",
      "type": "event"
    },
    {
      "anonymous": false,
      "inputs": [
        {
          "indexed": true,
          "internalType": "address",
          "name": "oldTreasuryWallet",
          "type": "address"
        },
        {
          "indexed": true,
          "internalType": "address",
          "name": "newTreasuryWallet",
          "type": "address"
        }
      ],
      "name": "SetTreasuryWallet",
      "type": "event"
    },
    {
      "anonymous": false,
      "inputs": [
        {
          "indexed": true,
          "internalType": "address",
          "name": "from",
          "type": "address"
        },
        {
          "indexed": true,
          "internalType": "address",
          "name": "to",
          "type": "address"
        },
        {
          "indexed": false,
          "internalType": "uint256",
          "name": "value",
          "type": "uint256"
        }
      ],
      "name": "Transfer",
      "type": "event"
    },
    {
      "inputs": [],
      "name": "DENOMINATOR",
      "outputs": [
        {
          "internalType": "uint256",
          "name": "",
          "type": "uint256"
        }
      ],
      "stateMutability": "view",
      "type": "function"
    },
    {
      "inputs": [
        {
          "internalType": "address",
          "name": "owner",
          "type": "address"
        },
        {
          "internalType": "address",
          "name": "spender",
          "type": "address"
        }
      ],
      "name": "allowance",
      "outputs": [
        {
          "internalType": "uint256",
          "name": "",
          "type": "uint256"
        }
      ],
      "stateMutability": "view",
      "type": "function"
    },
    {
      "inputs": [
        {
          "internalType": "address",
          "name": "spender",
          "type": "address"
        },
        {
          "internalType": "uint256",
          "name": "amount",
          "type": "uint256"
        }
      ],
      "name": "approve",
      "outputs": [
        {
          "internalType": "bool",
          "name": "",
          "type": "bool"
        }
      ],
      "stateMutability": "nonpayable",
      "type": "function"
    },
    {
      "inputs": [],
      "name": "approveMigrate",
      "outputs": [],
      "stateMutability": "nonpayable",
      "type": "function"
    },
    {
      "inputs": [
        {
          "internalType": "address",
          "name": "account",
          "type": "address"
        }
      ],
      "name": "balanceOf",
      "outputs": [
        {
          "internalType": "uint256",
          "name": "",
          "type": "uint256"
        }
      ],
      "stateMutability": "view",
      "type": "function"
    },
    {
      "inputs": [],
      "name": "communityFee",
      "outputs": [
        {
          "internalType": "uint256",
          "name": "",
          "type": "uint256"
        }
      ],
      "stateMutability": "view",
      "type": "function"
    },
    {
      "inputs": [],
      "name": "communityWallet",
      "outputs": [
        {
          "internalType": "address",
          "name": "",
          "type": "address"
        }
      ],
      "stateMutability": "view",
      "type": "function"
    },
    {
      "inputs": [],
      "name": "customNetworkFeePercentage",
      "outputs": [
        {
          "internalType": "uint256",
          "name": "",
          "type": "uint256"
        }
      ],
      "stateMutability": "view",
      "type": "function"
    },
    {
      "inputs": [],
      "name": "customNetworkFeeTier",
      "outputs": [
        {
          "internalType": "uint256",
          "name": "",
          "type": "uint256"
        }
      ],
      "stateMutability": "view",
      "type": "function"
    },
    {
      "inputs": [],
      "name": "daoVault",
      "outputs": [
        {
          "internalType": "contract IDaoVault",
          "name": "",
          "type": "address"
        }
      ],
      "stateMutability": "view",
      "type": "function"
    },
    {
      "inputs": [],
      "name": "decimals",
      "outputs": [
        {
          "internalType": "uint8",
          "name": "",
          "type": "uint8"
        }
      ],
      "stateMutability": "view",
      "type": "function"
    },
    {
      "inputs": [
        {
          "internalType": "address",
          "name": "spender",
          "type": "address"
        },
        {
          "internalType": "uint256",
          "name": "subtractedValue",
          "type": "uint256"
        }
      ],
      "name": "decreaseAllowance",
      "outputs": [
        {
          "internalType": "bool",
          "name": "",
          "type": "bool"
        }
      ],
      "stateMutability": "nonpayable",
      "type": "function"
    },
    {
      "inputs": [
        {
          "internalType": "uint256[]",
          "name": "_amounts",
          "type": "uint256[]"
        }
      ],
      "name": "deposit",
      "outputs": [],
      "stateMutability": "nonpayable",
      "type": "function"
    },
    {
      "inputs": [],
      "name": "earn",
      "outputs": [
        {
          "internalType": "contract IYearn",
          "name": "",
          "type": "address"
        }
      ],
      "stateMutability": "view",
      "type": "function"
    },
    {
      "inputs": [
        {
          "internalType": "address",
          "name": "_address",
          "type": "address"
        }
      ],
      "name": "getEarnDepositBalance",
      "outputs": [
        {
          "internalType": "uint256",
          "name": "",
          "type": "uint256"
        }
      ],
      "stateMutability": "view",
      "type": "function"
    },
    {
      "inputs": [
        {
          "internalType": "address",
          "name": "_address",
          "type": "address"
        }
      ],
      "name": "getSharesValue",
      "outputs": [
        {
          "internalType": "uint256",
          "name": "",
          "type": "uint256"
        }
      ],
      "stateMutability": "view",
      "type": "function"
    },
    {
      "inputs": [
        {
          "internalType": "address",
          "name": "_address",
          "type": "address"
        }
      ],
      "name": "getVaultDepositBalance",
      "outputs": [
        {
          "internalType": "uint256",
          "name": "",
          "type": "uint256"
        }
      ],
      "stateMutability": "view",
      "type": "function"
    },
    {
      "inputs": [
        {
          "internalType": "address",
          "name": "spender",
          "type": "address"
        },
        {
          "internalType": "uint256",
          "name": "addedValue",
          "type": "uint256"
        }
      ],
      "name": "increaseAllowance",
      "outputs": [
        {
          "internalType": "bool",
          "name": "",
          "type": "bool"
        }
      ],
      "stateMutability": "nonpayable",
      "type": "function"
    },
    {
      "inputs": [],
      "name": "isVesting",
      "outputs": [
        {
          "internalType": "bool",
          "name": "",
          "type": "bool"
        }
      ],
      "stateMutability": "view",
      "type": "function"
    },
    {
      "inputs": [],
      "name": "name",
      "outputs": [
        {
          "internalType": "string",
          "name": "",
          "type": "string"
        }
      ],
      "stateMutability": "view",
      "type": "function"
    },
    {
      "inputs": [
        {
          "internalType": "uint256",
          "name": "",
          "type": "uint256"
        }
      ],
      "name": "networkFeePercentage",
      "outputs": [
        {
          "internalType": "uint256",
          "name": "",
          "type": "uint256"
        }
      ],
      "stateMutability": "view",
      "type": "function"
    },
    {
      "inputs": [
        {
          "internalType": "uint256",
          "name": "",
          "type": "uint256"
        }
      ],
      "name": "networkFeeTier2",
      "outputs": [
        {
          "internalType": "uint256",
          "name": "",
          "type": "uint256"
        }
      ],
      "stateMutability": "view",
      "type": "function"
    },
    {
      "inputs": [],
      "name": "owner",
      "outputs": [
        {
          "internalType": "address",
          "name": "",
          "type": "address"
        }
      ],
      "stateMutability": "view",
      "type": "function"
    },
    {
      "inputs": [],
      "name": "pool",
      "outputs": [
        {
          "internalType": "uint256",
          "name": "",
          "type": "uint256"
        }
      ],
      "stateMutability": "view",
      "type": "function"
    },
    {
      "inputs": [],
      "name": "profileSharingFeePercentage",
      "outputs": [
        {
          "internalType": "uint256",
          "name": "",
          "type": "uint256"
        }
      ],
      "stateMutability": "view",
      "type": "function"
    },
    {
      "inputs": [
        {
          "internalType": "uint256",
          "name": "_shares",
          "type": "uint256"
        }
      ],
      "name": "refund",
      "outputs": [],
      "stateMutability": "nonpayable",
      "type": "function"
    },
    {
      "inputs": [],
      "name": "renounceOwnership",
      "outputs": [],
      "stateMutability": "nonpayable",
      "type": "function"
    },
    {
      "inputs": [
        {
          "internalType": "address",
          "name": "_communityWallet",
          "type": "address"
        }
      ],
      "name": "setCommunityWallet",
      "outputs": [],
      "stateMutability": "nonpayable",
      "type": "function"
    },
    {
      "inputs": [
        {
          "internalType": "uint256",
          "name": "_percentage",
          "type": "uint256"
        }
      ],
      "name": "setCustomNetworkFeePercentage",
      "outputs": [],
      "stateMutability": "nonpayable",
      "type": "function"
    },
    {
      "inputs": [
        {
          "internalType": "uint256",
          "name": "_customNetworkFeeTier",
          "type": "uint256"
        }
      ],
      "name": "setCustomNetworkFeeTier",
      "outputs": [],
      "stateMutability": "nonpayable",
      "type": "function"
    },
    {
      "inputs": [
        {
          "internalType": "uint256[]",
          "name": "_networkFeePercentage",
          "type": "uint256[]"
        }
      ],
      "name": "setNetworkFeePercentage",
      "outputs": [],
      "stateMutability": "nonpayable",
      "type": "function"
    },
    {
      "inputs": [
        {
          "internalType": "uint256[]",
          "name": "_networkFeeTier2",
          "type": "uint256[]"
        }
      ],
      "name": "setNetworkFeeTier2",
      "outputs": [],
      "stateMutability": "nonpayable",
      "type": "function"
    },
    {
      "inputs": [
        {
          "internalType": "uint256",
          "name": "_percentage",
          "type": "uint256"
        }
      ],
      "name": "setProfileSharingFeePercentage",
      "outputs": [],
      "stateMutability": "nonpayable",
      "type": "function"
    },
    {
      "inputs": [
        {
          "internalType": "address",
          "name": "_treasuryWallet",
          "type": "address"
        }
      ],
      "name": "setTreasuryWallet",
      "outputs": [],
      "stateMutability": "nonpayable",
      "type": "function"
    },
    {
      "inputs": [
        {
          "internalType": "address",
          "name": "_address",
          "type": "address"
        }
      ],
      "name": "setVault",
      "outputs": [],
      "stateMutability": "nonpayable",
      "type": "function"
    },
    {
      "inputs": [],
      "name": "symbol",
      "outputs": [
        {
          "internalType": "string",
          "name": "",
          "type": "string"
        }
      ],
      "stateMutability": "view",
      "type": "function"
    },
    {
      "inputs": [],
      "name": "token",
      "outputs": [
        {
          "internalType": "contract IERC20",
          "name": "",
          "type": "address"
        }
      ],
      "stateMutability": "view",
      "type": "function"
    },
    {
      "inputs": [],
      "name": "totalSupply",
      "outputs": [
        {
          "internalType": "uint256",
          "name": "",
          "type": "uint256"
        }
      ],
      "stateMutability": "view",
      "type": "function"
    },
    {
      "inputs": [
        {
          "internalType": "address",
          "name": "recipient",
          "type": "address"
        },
        {
          "internalType": "uint256",
          "name": "amount",
          "type": "uint256"
        }
      ],
      "name": "transfer",
      "outputs": [
        {
          "internalType": "bool",
          "name": "",
          "type": "bool"
        }
      ],
      "stateMutability": "nonpayable",
      "type": "function"
    },
    {
      "inputs": [
        {
          "internalType": "address",
          "name": "sender",
          "type": "address"
        },
        {
          "internalType": "address",
          "name": "recipient",
          "type": "address"
        },
        {
          "internalType": "uint256",
          "name": "amount",
          "type": "uint256"
        }
      ],
      "name": "transferFrom",
      "outputs": [
        {
          "internalType": "bool",
          "name": "",
          "type": "bool"
        }
      ],
      "stateMutability": "nonpayable",
      "type": "function"
    },
    {
      "inputs": [
        {
          "internalType": "address",
          "name": "newOwner",
          "type": "address"
        }
      ],
      "name": "transferOwnership",
      "outputs": [],
      "stateMutability": "nonpayable",
      "type": "function"
    },
    {
      "inputs": [],
      "name": "treasuryFee",
      "outputs": [
        {
          "internalType": "uint256",
          "name": "",
          "type": "uint256"
        }
      ],
      "stateMutability": "view",
      "type": "function"
    },
    {
      "inputs": [],
      "name": "treasuryWallet",
      "outputs": [
        {
          "internalType": "address",
          "name": "",
          "type": "address"
        }
      ],
      "stateMutability": "view",
      "type": "function"
    },
    {
      "inputs": [],
      "name": "vault",
      "outputs": [
        {
          "internalType": "contract IYvault",
          "name": "",
          "type": "address"
        }
      ],
      "stateMutability": "view",
      "type": "function"
    },
    {
      "inputs": [],
      "name": "vesting",
      "outputs": [],
      "stateMutability": "nonpayable",
      "type": "function"
    },
    {
      "inputs": [
        {
          "internalType": "uint256[]",
          "name": "_shares",
          "type": "uint256[]"
        }
      ],
      "name": "withdraw",
      "outputs": [],
      "stateMutability": "nonpayable",
      "type": "function"
    }
  ],
  "bytecode": "0x600c80546001600160a01b03199081167359e83877bd248cbfe392dbb5a8a29959bcb4859217909155600d805490911673dd6c35aff646b2fb7d8a8955ccbe0994409348d017905560c0604052640ba43b7401608090815264174876e80060a0526200007090600e906002620007f9565b5064e8d4a51000600f556040805160608101825260648152604b6020820152603291810191909152620000a890601090600362000852565b5060196011556103e86012556013805460ff19169055348015620000cb57600080fd5b50604051620046d4380380620046d483398181016040526060811015620000f157600080fd5b50805160208083015160409384015184518086018652601381527f596561726e204661726d65722076322044414900000000000000000000000000818501908152865180880190975260078752663cb32220a4bb1960c91b948701949094528051949592949193909291620001699160039162000895565b5080516200017f90600490602084019062000895565b50506005805460ff191660121790555060006200019b6200024d565b60058054610100600160a81b0319166101006001600160a01b03841690810291909117909155604051919250906000907f8be0079c531659141344cd1fd0a4f28419497f9722a3daafe3b4186f6b6457e0908290a350620001fd601262000251565b600680546001600160a01b038086166001600160a01b0319928316179092556007805485841690831617905560088054928416929091169190911790556200024462000267565b5050506200092f565b3390565b6005805460ff191660ff92909216919091179055565b60065460075460408051636eb1769f60e11b81523060048201526001600160a01b0392831660248201529051600093929092169163dd62ed3e91604480820192602092909190829003018186803b158015620002c257600080fd5b505afa158015620002d7573d6000803e3d6000fd5b505050506040513d6020811015620002ee57600080fd5b5051905080620003255760075460065462000325916001600160a01b039182169116600119620003e7602090811b620027d717901c565b60065460085460408051636eb1769f60e11b81523060048201526001600160a01b0392831660248201529051600093929092169163dd62ed3e91604480820192602092909190829003018186803b1580156200038057600080fd5b505afa15801562000395573d6000803e3d6000fd5b505050506040513d6020811015620003ac57600080fd5b5051905080620003e357600854600654620003e3916001600160a01b039182169116600119620003e7602090811b620027d717901c565b5050565b80158062000471575060408051636eb1769f60e11b81523060048201526001600160a01b03848116602483015291519185169163dd62ed3e91604480820192602092909190829003018186803b1580156200044157600080fd5b505afa15801562000456573d6000803e3d6000fd5b505050506040513d60208110156200046d57600080fd5b5051155b620004ae5760405162461bcd60e51b81526004018080602001828103825260368152602001806200469e6036913960400191505060405180910390fd5b604080516001600160a01b038416602482015260448082018490528251808303909101815260649091019091526020810180516001600160e01b0390811663095ea7b360e01b17909152620005069185916200050b16565b505050565b600062000567826040518060400160405280602081526020017f5361666545524332303a206c6f772d6c6576656c2063616c6c206661696c6564815250856001600160a01b0316620005c760201b62002908179092919060201c565b80519091501562000506578080602001905160208110156200058857600080fd5b5051620005065760405162461bcd60e51b815260040180806020018281038252602a81526020018062004674602a913960400191505060405180910390fd5b6060620005d88484600085620005e2565b90505b9392505050565b606082471015620006255760405162461bcd60e51b81526004018080602001828103825260268152602001806200464e6026913960400191505060405180910390fd5b620006308562000749565b62000682576040805162461bcd60e51b815260206004820152601d60248201527f416464726573733a2063616c6c20746f206e6f6e2d636f6e7472616374000000604482015290519081900360640190fd5b600080866001600160a01b031685876040518082805190602001908083835b60208310620006c25780518252601f199092019160209182019101620006a1565b6001836020036101000a03801982511681845116808217855250505050505090500191505060006040518083038185875af1925050503d806000811462000726576040519150601f19603f3d011682016040523d82523d6000602084013e6200072b565b606091505b5090925090506200073e8282866200074f565b979650505050505050565b3b151590565b6060831562000760575081620005db565b825115620007715782518084602001fd5b8160405162461bcd60e51b81526004018080602001828103825283818151815260200191508051906020019080838360005b83811015620007bd578181015183820152602001620007a3565b50505050905090810190601f168015620007eb5780820380516001836020036101000a031916815260200191505b509250505060405180910390fd5b82805482825590600052602060002090810192821562000840579160200282015b8281111562000840578251829064ffffffffff169055916020019190600101906200081a565b506200084e92915062000918565b5090565b82805482825590600052602060002090810192821562000840579160200282015b8281111562000840578251829060ff1690559160200191906001019062000873565b828054600181600116156101000203166002900490600052602060002090601f016020900481019282620008cd576000855562000840565b82601f10620008e857805160ff191683800117855562000840565b8280016001018555821562000840579182015b8281111562000840578251825591602001919060010190620008fb565b5b808211156200084e576000815560010162000919565b613d0f806200093f6000396000f3fe608060405234801561001057600080fd5b506004361061030a5760003560e01c80638da5cb5b1161019c578063c17b1071116100ee578063dd62ed3e11610097578063fbfa77cf11610071578063fbfa77cf14610986578063fc0c546a1461098e578063fed856fe146109965761030a565b8063dd62ed3e14610915578063e5ec14d414610943578063f2fde38b146109605761030a565b8063cc32d176116100c8578063cc32d17614610711578063ce25aa7914610905578063d389800f1461090d5761030a565b8063c17b1071146108d8578063c7574839146108f5578063cc1db380146108fd5761030a565b80639905021f11610150578063a9059cbb1161012a578063a9059cbb14610869578063bc27b8c514610895578063c125a6fd146108bb5761030a565b80639905021f146107fa578063a457c2d714610817578063a8602fea146108435761030a565b8063918f867411610181578063918f86741461074757806395d89b411461074f578063983d95ce146107575761030a565b80638da5cb5b146107195780638f347b9a146107215761030a565b806339509351116102605780635ec01fff11610209578063715018a6116101e3578063715018a6146106e357806385d6bb81146106eb5780638961be6b146107115761030a565b80635ec01fff1461067a5780636817031b1461069757806370a08231146106bd5761030a565b806356478f0d1161023a57806356478f0d146105c75780635903bd6c146105cf578063598b8e71146105d75761030a565b8063395093511461056f57806344c63eec1461059b5780634626402b146105a35761030a565b8063278ecde1116102c257806334100fc41161029c57806334100fc41461046957806336112966146104d9578063367a995a146104ff5761030a565b8063278ecde114610424578063313ce5671461044357806332b49d59146104615761030a565b806316f0115b116102f357806316f0115b146103cc57806318160ddd146103e657806323b872dd146103ee5761030a565b806306fdde031461030f578063095ea7b31461038c575b600080fd5b61031761099e565b6040805160208082528351818301528351919283929083019185019080838360005b83811015610351578181015183820152602001610339565b50505050905090810190601f16801561037e5780820380516001836020036101000a031916815260200191505b509250505060405180910390f35b6103b8600480360360408110156103a257600080fd5b506001600160a01b038135169060200135610a34565b604080519115158252519081900360200190f35b6103d4610a52565b60408051918252519081900360200190f35b6103d4610a58565b6103b86004803603606081101561040457600080fd5b506001600160a01b03813581169160208101359091169060400135610a5e565b6104416004803603602081101561043a57600080fd5b5035610ae6565b005b61044b610ce7565b6040805160ff9092168252519081900360200190f35b6103d4610cf0565b6104416004803603602081101561047f57600080fd5b81019060208101813564010000000081111561049a57600080fd5b8201836020820111156104ac57600080fd5b803590602001918460208302840111640100000000831117156104ce57600080fd5b509092509050610cf6565b6103d4600480360360208110156104ef57600080fd5b50356001600160a01b0316610f3a565b6104416004803603602081101561051557600080fd5b81019060208101813564010000000081111561053057600080fd5b82018360208201111561054257600080fd5b8035906020019184602083028401116401000000008311171561056457600080fd5b509092509050610f75565b6103b86004803603604081101561058557600080fd5b506001600160a01b038135169060200135611138565b610441611186565b6105ab6115a9565b604080516001600160a01b039092168252519081900360200190f35b6103d46115b8565b6105ab6115be565b610441600480360360208110156105ed57600080fd5b81019060208101813564010000000081111561060857600080fd5b82018360208201111561061a57600080fd5b8035906020019184602083028401116401000000008311171561063c57600080fd5b9190808060200260200160405190810160405280939291908181526020018383602002808284376000920191909152509295506115d2945050505050565b6104416004803603602081101561069057600080fd5b5035611a7f565b610441600480360360208110156106ad57600080fd5b50356001600160a01b0316611b5a565b6103d4600480360360208110156106d357600080fd5b50356001600160a01b0316611c54565b610441611c6f565b6104416004803603602081101561070157600080fd5b50356001600160a01b0316611d2e565b6103d4611def565b6105ab611df5565b6103d46004803603602081101561073757600080fd5b50356001600160a01b0316611e09565b6103d4611f96565b610317611f9c565b6104416004803603602081101561076d57600080fd5b81019060208101813564010000000081111561078857600080fd5b82018360208201111561079a57600080fd5b803590602001918460208302840111640100000000831117156107bc57600080fd5b919080806020026020016040519081016040528093929190818152602001838360200280828437600092019190915250929550611ffd945050505050565b6103d46004803603602081101561081057600080fd5b5035612130565b6103b86004803603604081101561082d57600080fd5b506001600160a01b038135169060200135612151565b6104416004803603602081101561085957600080fd5b50356001600160a01b03166121b9565b6103b86004803603604081101561087f57600080fd5b506001600160a01b03813516906020013561227a565b6103d4600480360360208110156108ab57600080fd5b50356001600160a01b031661228e565b610441600480360360208110156108d157600080fd5b50356122c8565b610441600480360360208110156108ee57600080fd5b50356123c7565b6105ab6124c6565b6104416124d5565b6103d4612645565b6105ab61264b565b6103d46004803603604081101561092b57600080fd5b506001600160a01b038135811691602001351661265a565b6103d46004803603602081101561095957600080fd5b5035612685565b6104416004803603602081101561097657600080fd5b50356001600160a01b0316612695565b6105ab6127b0565b6105ab6127bf565b6103b86127ce565b60038054604080516020601f6002600019610100600188161502019095169490940493840181900481028201810190925282815260609390929091830182828015610a2a5780601f106109ff57610100808354040283529160200191610a2a565b820191906000526020600020905b815481529060010190602001808311610a0d57829003601f168201915b5050505050905090565b6000610a48610a4161291f565b8484612923565b5060015b92915050565b600b5481565b60025490565b6000610a6b848484612a0f565b610adb84610a7761291f565b610ad685604051806060016040528060288152602001613b6b602891396001600160a01b038a16600090815260016020526040812090610ab561291f565b6001600160a01b031681526020810191909152604001600020549190612b6a565b612923565b5060015b9392505050565b60135460ff161515600114610b42576040805162461bcd60e51b815260206004820152601460248201527f4e6f7420696e2076657374696e67207374617465000000000000000000000000604482015290519081900360640190fd5b60135461010090046001600160a01b03163314610ba6576040805162461bcd60e51b815260206004820152601860248201527f4f6e6c792063616e2063616c6c2066726f6d205661756c740000000000000000604482015290519081900360640190fd5b6000610cae601360019054906101000a90046001600160a01b03166001600160a01b03166318160ddd6040518163ffffffff1660e01b815260040160206040518083038186803b158015610bf957600080fd5b505afa158015610c0d573d6000803e3d6000fd5b505050506040513d6020811015610c2357600080fd5b5051600654604080516370a0823160e01b81523060048201529051610ca89287926001600160a01b03909116916370a0823191602480820192602092909190829003018186803b158015610c7657600080fd5b505afa158015610c8a573d6000803e3d6000fd5b505050506040513d6020811015610ca057600080fd5b505190612c01565b90612c5a565b600654909150610cc8906001600160a01b03163283612cc1565b601354610ce39061010090046001600160a01b031683612d2c565b5050565b60055460ff1690565b60115481565b610cfe61291f565b6001600160a01b0316610d0f611df5565b6001600160a01b031614610d58576040805162461bcd60e51b81526020600482018190526024820152600080516020613b93833981519152604482015290519081900360640190fd5b81816000818110610d6557fe5b9050602002013560001415610dc1576040805162461bcd60e51b815260206004820152601a60248201527f4d696e696d756e20616d6f756e742063616e6e6f742062652030000000000000604482015290519081900360640190fd5b81816000818110610dce57fe5b9050602002013582826001818110610de257fe5b9050602002013511610e255760405162461bcd60e51b815260040180806020018281038252602f815260200180613ab5602f913960400191505060405180910390fd5b6000600e805480602002602001604051908101604052809291908181526020018280548015610e7357602002820191906000526020600020905b815481526020019060010190808311610e5f575b505050505090508282600e9190610e8b92919061394d565b507f27a98e39e1429b018e9a49265f33c203cb4819c6ce1ab3fcb70815f9d738c15b818484604051808060200180602001838103835286818151815260200191508051906020019060200280838360005b83811015610ef4578181015183820152602001610edc565b505050509050018381038252858582818152602001925060200280828437600083820152604051601f909101601f191690920182900397509095505050505050a1505050565b60135460009060ff16151560011415610f5557506000610f70565b506001600160a01b0381166000908152600960205260409020545b919050565b610f7d61291f565b6001600160a01b0316610f8e611df5565b6001600160a01b031614610fd7576040805162461bcd60e51b81526020600482018190526024820152600080516020613b93833981519152604482015290519081900360640190fd5b610fa082826000818110610fe757fe5b9050602002013510801561100f5750610fa08282600181811061100657fe5b90506020020135105b801561102f5750610fa08282600281811061102657fe5b90506020020135105b61106a5760405162461bcd60e51b815260040180806020018281038252602e815260200180613a87602e913960400191505060405180910390fd5b600060108054806020026020016040519081016040528092919081815260200182805480156110b857602002820191906000526020600020905b8154815260200190600101908083116110a4575b505050505090508282601091906110d092919061394d565b507f80bc7578e8ffb66417bfb04c51802339e747af4dfb5ed1646b4a60d286f9bfd08184846040518080602001806020018381038352868181518152602001915080519060200190602002808383600083811015610ef4578181015183820152602001610edc565b6000610a4861114561291f565b84610ad6856001600061115661291f565b6001600160a01b03908116825260208083019390935260409182016000908120918c168152925290205490612e28565b61118e61291f565b6001600160a01b031661119f611df5565b6001600160a01b0316146111e8576040805162461bcd60e51b81526020600482018190526024820152600080516020613b93833981519152604482015290519081900360640190fd5b60135460ff1615611240576040805162461bcd60e51b815260206004820152601860248201527f416c726561647920696e2076657374696e672073746174650000000000000000604482015290519081900360640190fd5b6013805460ff19166001179055600754604080516370a0823160e01b815230600482015290516000926001600160a01b0316916370a08231916024808301926020929190829003018186803b15801561129857600080fd5b505afa1580156112ac573d6000803e3d6000fd5b505050506040513d60208110156112c257600080fd5b5051600854604080516370a0823160e01b815230600482015290519293506000926001600160a01b03909216916370a0823191602480820192602092909190829003018186803b15801561131557600080fd5b505afa158015611329573d6000803e3d6000fd5b505050506040513d602081101561133f57600080fd5b5051905081156113af5760075460408051632e1a7d4d60e01b81526004810185905290516001600160a01b0390921691632e1a7d4d9160248082019260009290919082900301818387803b15801561139657600080fd5b505af11580156113aa573d6000803e3d6000fd5b505050505b801561141b5760085460408051632e1a7d4d60e01b81526004810184905290516001600160a01b0390921691632e1a7d4d9160248082019260009290919082900301818387803b15801561140257600080fd5b505af1158015611416573d6000803e3d6000fd5b505050505b600b54600654604080516370a0823160e01b815230600482015290516001600160a01b03909216916370a0823191602480820192602092909190829003018186803b15801561146957600080fd5b505afa15801561147d573d6000803e3d6000fd5b505050506040513d602081101561149357600080fd5b505111156115a057600b54600654604080516370a0823160e01b815230600482015290516000936115249390926001600160a01b03909116916370a0823191602480820192602092909190829003018186803b1580156114f257600080fd5b505afa158015611506573d6000803e3d6000fd5b505050506040513d602081101561151c57600080fd5b505190612e82565b90506000611543612710610ca860125485612c0190919063ffffffff16565b600c5490915061157b906001600160a01b0316611568612710610ca885611388612c01565b6006546001600160a01b03169190612cc1565b600d5461159d906001600160a01b0316611568612710610ca885611388612c01565b50505b50506000600b55565b600c546001600160a01b031681565b60125481565b60135461010090046001600160a01b031681565b60135460ff161561162a576040805162461bcd60e51b815260206004820152601960248201527f436f6e747261637420696e2076657374696e6720737461746500000000000000604482015290519081900360640190fd5b60135461010090046001600160a01b0316331461168e576040805162461bcd60e51b815260206004820152601860248201527f4f6e6c792063616e2063616c6c2066726f6d205661756c740000000000000000604482015290519081900360640190fd5b60008160008151811061169d57fe5b602002602001015111806116c557506000816001815181106116bb57fe5b6020026020010151115b611716576040805162461bcd60e51b815260206004820152600f60248201527f416d6f756e74206d757374203e20300000000000000000000000000000000000604482015290519081900360640190fd5b60008160008151811061172557fe5b6020026020010151905060008260018151811061173e57fe5b60200260200101519050600061175d8284612e2890919063ffffffff16565b600654909150611778906001600160a01b0316323084612edf565b6000806000600e60008154811061178b57fe5b90600052602060002001548410156117bd5760106000815481106117ab57fe5b9060005260206000200154905061183e565b600e6000815481106117cb57fe5b906000526020600020015484101580156117fd5750600e6001815481106117ee57fe5b90600052602060002001548411155b156118105760106001815481106117ab57fe5b600f548410611822575060115461183e565b601060028154811061183057fe5b906000526020600020015490505b85156118f457611854612710610ca88884612c01565b92506118608684612e82565b6007546040805163b6b55f2560e01b81526004810184905290519298506001600160a01b039091169163b6b55f259160248082019260009290919082900301818387803b1580156118b057600080fd5b505af11580156118c4573d6000803e3d6000fd5b5050326000908152600960205260409020546118e39250905087612e28565b326000908152600960205260409020555b84156119aa5761190a612710610ca88784612c01565b91506119168583612e82565b6008546040805163b6b55f2560e01b81526004810184905290519297506001600160a01b039091169163b6b55f259160248082019260009290919082900301818387803b15801561196657600080fd5b505af115801561197a573d6000803e3d6000fd5b5050326000908152600a60205260409020546119999250905086612e28565b326000908152600a60205260409020555b60006119b68484612e28565b600c549091506119db906001600160a01b0316611568612710610ca885611388612c01565b600d546119fd906001600160a01b0316611568612710610ca885611388612c01565b6000611a07610a58565b611a1c57611a158888612e28565b9050611a40565b611a3d600b54610ca8611a2d610a58565b611a378c8c612e28565b90612c01565b90505b601354611a5b9061010090046001600160a01b031682612f58565b611a71611a688989612e28565b600b5490612e28565b600b55505050505050505050565b611a8761291f565b6001600160a01b0316611a98611df5565b6001600160a01b031614611ae1576040805162461bcd60e51b81526020600482018190526024820152600080516020613b93833981519152604482015290519081900360640190fd5b610fa08110611b215760405162461bcd60e51b8152600401808060200182810382526036815260200180613b146036913960400191505060405180910390fd5b6012805490829055604051829082907f81f31b47896bcfe7f3a448e93cf373b6602b499a06f991fa95e920906251f5e690600090a35050565b611b6261291f565b6001600160a01b0316611b73611df5565b6001600160a01b031614611bbc576040805162461bcd60e51b81526020600482018190526024820152600080516020613b93833981519152604482015290519081900360640190fd5b60135461010090046001600160a01b031615611c1f576040805162461bcd60e51b815260206004820152600960248201527f5661756c74207365740000000000000000000000000000000000000000000000604482015290519081900360640190fd5b601380546001600160a01b039092166101000274ffffffffffffffffffffffffffffffffffffffff0019909216919091179055565b6001600160a01b031660009081526020819052604090205490565b611c7761291f565b6001600160a01b0316611c88611df5565b6001600160a01b031614611cd1576040805162461bcd60e51b81526020600482018190526024820152600080516020613b93833981519152604482015290519081900360640190fd5b60055460405160009161010090046001600160a01b0316907f8be0079c531659141344cd1fd0a4f28419497f9722a3daafe3b4186f6b6457e0908390a36005805474ffffffffffffffffffffffffffffffffffffffff0019169055565b611d3661291f565b6001600160a01b0316611d47611df5565b6001600160a01b031614611d90576040805162461bcd60e51b81526020600482018190526024820152600080516020613b93833981519152604482015290519081900360640190fd5b600d80546001600160a01b0383811673ffffffffffffffffffffffffffffffffffffffff19831681179093556040519116919082907f7c2cfb870a55cea02043717c09aa9837391f1bc8eedb1dbd1a6c1a3ea5232e0a90600090a35050565b61138881565b60055461010090046001600160a01b031690565b60135460009060ff16611e1e57506000610f70565b6000601360019054906101000a90046001600160a01b03166001600160a01b03166370a08231846040518263ffffffff1660e01b815260040180826001600160a01b0316815260200191505060206040518083038186803b158015611e8257600080fd5b505afa158015611e96573d6000803e3d6000fd5b505050506040513d6020811015611eac57600080fd5b505190508015611f8c57611f84601360019054906101000a90046001600160a01b03166001600160a01b03166318160ddd6040518163ffffffff1660e01b815260040160206040518083038186803b158015611f0757600080fd5b505afa158015611f1b573d6000803e3d6000fd5b505050506040513d6020811015611f3157600080fd5b5051600654604080516370a0823160e01b81523060048201529051610ca89286926001600160a01b03909116916370a0823191602480820192602092909190829003018186803b158015610c7657600080fd5b915050610f70565b6000915050610f70565b61271081565b60048054604080516020601f6002600019610100600188161502019095169490940493840181900481028201810190925282815260609390929091830182828015610a2a5780601f106109ff57610100808354040283529160200191610a2a565b60135460ff1615612055576040805162461bcd60e51b815260206004820152601960248201527f436f6e747261637420696e2076657374696e6720737461746500000000000000604482015290519081900360640190fd5b60135461010090046001600160a01b031633146120b9576040805162461bcd60e51b815260206004820152601860248201527f4f6e6c792063616e2063616c6c2066726f6d205661756c740000000000000000604482015290519081900360640190fd5b6000816000815181106120c857fe5b602002602001015111156120f3576120f3816000815181106120e657fe5b6020026020010151613048565b60008160018151811061210257fe5b6020026020010151111561212d5761212d8160018151811061212057fe5b6020026020010151613409565b50565b6010818154811061214057600080fd5b600091825260209091200154905081565b6000610a4861215e61291f565b84610ad685604051806060016040528060258152602001613cb5602591396001600061218861291f565b6001600160a01b03908116825260208083019390935260409182016000908120918d16815292529020549190612b6a565b6121c161291f565b6001600160a01b03166121d2611df5565b6001600160a01b03161461221b576040805162461bcd60e51b81526020600482018190526024820152600080516020613b93833981519152604482015290519081900360640190fd5b600c80546001600160a01b0383811673ffffffffffffffffffffffffffffffffffffffff19831681179093556040519116919082907febcecb9db04071cf4b4ecc1e2e1e4603e74c9382d6e36c3531f0b62af4c78ed790600090a35050565b6000610a4861228761291f565b8484612a0f565b60135460009060ff161515600114156122a957506000610f70565b506001600160a01b0381166000908152600a6020526040902054610f70565b6122d061291f565b6001600160a01b03166122e1611df5565b6001600160a01b03161461232a576040805162461bcd60e51b81526020600482018190526024820152600080516020613b93833981519152604482015290519081900360640190fd5b601060028154811061233857fe5b906000526020600020015481106123805760405162461bcd60e51b8152600401808060200182810382526038815260200180613bd46038913960400191505060405180910390fd5b6011805490829055604080518281526020810184905281517f36839762570270980604901237ded788dbbe261547211b4edfd1386f7a3e189d929181900390910190a15050565b6123cf61291f565b6001600160a01b03166123e0611df5565b6001600160a01b031614612429576040805162461bcd60e51b81526020600482018190526024820152600080516020613b93833981519152604482015290519081900360640190fd5b600e60018154811061243757fe5b9060005260206000200154811161247f5760405162461bcd60e51b8152600401808060200182810382526030815260200180613ae46030913960400191505060405180910390fd5b600f805490829055604080518281526020810184905281517fef2a4c2ea48c640ebf60d3ed1b6c41747f60e3c5bf7b290e4ad0d156839b6433929181900390910190a15050565b600d546001600160a01b031681565b6124dd61291f565b6001600160a01b03166124ee611df5565b6001600160a01b031614612537576040805162461bcd60e51b81526020600482018190526024820152600080516020613b93833981519152604482015290519081900360640190fd5b60135460ff161515600114612593576040805162461bcd60e51b815260206004820152601460248201527f4e6f7420696e2076657374696e67207374617465000000000000000000000000604482015290519081900360640190fd5b60065460135460408051636eb1769f60e11b81523060048201526101009092046001600160a01b039081166024840152905192169163dd62ed3e91604480820192602092909190829003018186803b1580156125ee57600080fd5b505afa158015612602573d6000803e3d6000fd5b505050506040513d602081101561261857600080fd5b505161264357601354600654612643916001600160a01b0391821691610100909104166001196127d7565b565b600f5481565b6007546001600160a01b031681565b6001600160a01b03918216600090815260016020908152604080832093909416825291909152205490565b600e818154811061214057600080fd5b61269d61291f565b6001600160a01b03166126ae611df5565b6001600160a01b0316146126f7576040805162461bcd60e51b81526020600482018190526024820152600080516020613b93833981519152604482015290519081900360640190fd5b6001600160a01b03811661273c5760405162461bcd60e51b81526004018080602001828103825260268152602001806139f36026913960400191505060405180910390fd5b6005546040516001600160a01b0380841692610100900416907f8be0079c531659141344cd1fd0a4f28419497f9722a3daafe3b4186f6b6457e090600090a3600580546001600160a01b039092166101000274ffffffffffffffffffffffffffffffffffffffff0019909216919091179055565b6008546001600160a01b031681565b6006546001600160a01b031681565b60135460ff1681565b80158061285d575060408051636eb1769f60e11b81523060048201526001600160a01b03848116602483015291519185169163dd62ed3e91604480820192602092909190829003018186803b15801561282f57600080fd5b505afa158015612843573d6000803e3d6000fd5b505050506040513d602081101561285957600080fd5b5051155b6128985760405162461bcd60e51b8152600401808060200182810382526036815260200180613c7f6036913960400191505060405180910390fd5b604080516001600160a01b038416602482015260448082018490528251808303909101815260649091019091526020810180516001600160e01b03167f095ea7b3000000000000000000000000000000000000000000000000000000001790526129039084906136d5565b505050565b60606129178484600085613786565b949350505050565b3390565b6001600160a01b0383166129685760405162461bcd60e51b8152600401808060200182810382526024815260200180613c316024913960400191505060405180910390fd5b6001600160a01b0382166129ad5760405162461bcd60e51b8152600401808060200182810382526022815260200180613a196022913960400191505060405180910390fd5b6001600160a01b03808416600081815260016020908152604080832094871680845294825291829020859055815185815291517f8c5be1e5ebec7d5bd14f71427d1e84f3dd0314c0f7b2291e5b200ac8c7c3b9259281900390910190a3505050565b6001600160a01b038316612a545760405162461bcd60e51b8152600401808060200182810382526025815260200180613c0c6025913960400191505060405180910390fd5b6001600160a01b038216612a995760405162461bcd60e51b81526004018080602001828103825260238152602001806139ae6023913960400191505060405180910390fd5b612aa4838383612903565b612ae181604051806060016040528060268152602001613a3b602691396001600160a01b0386166000908152602081905260409020549190612b6a565b6001600160a01b038085166000908152602081905260408082209390935590841681522054612b109082612e28565b6001600160a01b038084166000818152602081815260409182902094909455805185815290519193928716927fddf252ad1be2c89b69c2b068fc378daa952ba7f163c4a11628f55a4df523b3ef92918290030190a3505050565b60008184841115612bf95760405162461bcd60e51b81526004018080602001828103825283818151815260200191508051906020019080838360005b83811015612bbe578181015183820152602001612ba6565b50505050905090810190601f168015612beb5780820380516001836020036101000a031916815260200191505b509250505060405180910390fd5b505050900390565b600082612c1057506000610a4c565b82820282848281612c1d57fe5b0414610adf5760405162461bcd60e51b8152600401808060200182810382526021815260200180613b4a6021913960400191505060405180910390fd5b6000808211612cb0576040805162461bcd60e51b815260206004820152601a60248201527f536166654d6174683a206469766973696f6e206279207a65726f000000000000604482015290519081900360640190fd5b818381612cb957fe5b049392505050565b604080516001600160a01b038416602482015260448082018490528251808303909101815260649091019091526020810180516001600160e01b03167fa9059cbb000000000000000000000000000000000000000000000000000000001790526129039084906136d5565b6001600160a01b038216612d715760405162461bcd60e51b8152600401808060200182810382526021815260200180613bb36021913960400191505060405180910390fd5b612d7d82600083612903565b612dba816040518060600160405280602281526020016139d1602291396001600160a01b0385166000908152602081905260409020549190612b6a565b6001600160a01b038316600090815260208190526040902055600254612de09082612e82565b6002556040805182815290516000916001600160a01b038516917fddf252ad1be2c89b69c2b068fc378daa952ba7f163c4a11628f55a4df523b3ef9181900360200190a35050565b600082820183811015610adf576040805162461bcd60e51b815260206004820152601b60248201527f536166654d6174683a206164646974696f6e206f766572666c6f770000000000604482015290519081900360640190fd5b600082821115612ed9576040805162461bcd60e51b815260206004820152601e60248201527f536166654d6174683a207375627472616374696f6e206f766572666c6f770000604482015290519081900360640190fd5b50900390565b604080516001600160a01b0380861660248301528416604482015260648082018490528251808303909101815260849091019091526020810180516001600160e01b03167f23b872dd00000000000000000000000000000000000000000000000000000000179052612f529085906136d5565b50505050565b6001600160a01b038216612fb3576040805162461bcd60e51b815260206004820152601f60248201527f45524332303a206d696e7420746f20746865207a65726f206164647265737300604482015290519081900360640190fd5b612fbf60008383612903565b600254612fcc9082612e28565b6002556001600160a01b038216600090815260208190526040902054612ff29082612e28565b6001600160a01b0383166000818152602081815260408083209490945583518581529351929391927fddf252ad1be2c89b69c2b068fc378daa952ba7f163c4a11628f55a4df523b3ef9281900390910190a35050565b6000613062613055610a58565b600b54610ca89085612c01565b326000908152600960205260409020549091508111156130c9576040805162461bcd60e51b815260206004820152601460248201527f496e73756666696369656e742062616c616e6365000000000000000000000000604482015290519081900360640190fd5b60006131c1600760009054906101000a90046001600160a01b03166001600160a01b0316637137ef996040518163ffffffff1660e01b815260040160206040518083038186803b15801561311c57600080fd5b505afa158015613130573d6000803e3d6000fd5b505050506040513d602081101561314657600080fd5b5051600754604080516318160ddd60e01b81529051610ca8926001600160a01b0316916318160ddd916004808301926020929190829003018186803b15801561318e57600080fd5b505afa1580156131a2573d6000803e3d6000fd5b505050506040513d60208110156131b857600080fd5b50518590612c01565b905060006132a6600760009054906101000a90046001600160a01b03166001600160a01b03166318160ddd6040518163ffffffff1660e01b815260040160206040518083038186803b15801561321657600080fd5b505afa15801561322a573d6000803e3d6000fd5b505050506040513d602081101561324057600080fd5b5051600754604080517f7137ef990000000000000000000000000000000000000000000000000000000081529051610ca89287926001600160a01b0390911691637137ef9991600480820192602092909190829003018186803b158015610c7657600080fd5b60075460408051632e1a7d4d60e01b81526004810186905290519293506001600160a01b0390911691632e1a7d4d9160248082019260009290919082900301818387803b1580156132f657600080fd5b505af115801561330a573d6000803e3d6000fd5b5050326000908152600960205260409020546133299250905084612e82565b326000908152600960205260409020556013546133549061010090046001600160a01b031685612d2c565b600b546133619084612e82565b600b55828111156133f25760006133788285612e82565b90506000613397612710610ca860125485612c0190919063ffffffff16565b90506133a7326115688584612e82565b600c546133c9906001600160a01b0316611568612710610ca885611388612c01565b600d546133eb906001600160a01b0316611568612710610ca885611388612c01565b5050612f52565b600654612f52906001600160a01b03163283612cc1565b6000613416613055610a58565b326000908152600a602052604090205490915081111561347d576040805162461bcd60e51b815260206004820152601460248201527f496e73756666696369656e742062616c616e6365000000000000000000000000604482015290519081900360640190fd5b6000613542600860009054906101000a90046001600160a01b03166001600160a01b031663b69ef8a86040518163ffffffff1660e01b815260040160206040518083038186803b1580156134d057600080fd5b505afa1580156134e4573d6000803e3d6000fd5b505050506040513d60208110156134fa57600080fd5b5051600854604080516318160ddd60e01b81529051610ca8926001600160a01b0316916318160ddd916004808301926020929190829003018186803b15801561318e57600080fd5b90506000613627600860009054906101000a90046001600160a01b03166001600160a01b03166318160ddd6040518163ffffffff1660e01b815260040160206040518083038186803b15801561359757600080fd5b505afa1580156135ab573d6000803e3d6000fd5b505050506040513d60208110156135c157600080fd5b5051600854604080517fb69ef8a80000000000000000000000000000000000000000000000000000000081529051610ca89287926001600160a01b039091169163b69ef8a891600480820192602092909190829003018186803b158015610c7657600080fd5b60085460408051632e1a7d4d60e01b81526004810186905290519293506001600160a01b0390911691632e1a7d4d9160248082019260009290919082900301818387803b15801561367757600080fd5b505af115801561368b573d6000803e3d6000fd5b5050326000908152600a60205260409020546136aa9250905084612e82565b326000908152600a60205260409020556013546133549061010090046001600160a01b031685612d2c565b600061372a826040518060400160405280602081526020017f5361666545524332303a206c6f772d6c6576656c2063616c6c206661696c6564815250856001600160a01b03166129089092919063ffffffff16565b8051909150156129035780806020019051602081101561374957600080fd5b50516129035760405162461bcd60e51b815260040180806020018281038252602a815260200180613c55602a913960400191505060405180910390fd5b6060824710156137c75760405162461bcd60e51b8152600401808060200182810382526026815260200180613a616026913960400191505060405180910390fd5b6137d0856138e1565b613821576040805162461bcd60e51b815260206004820152601d60248201527f416464726573733a2063616c6c20746f206e6f6e2d636f6e7472616374000000604482015290519081900360640190fd5b600080866001600160a01b031685876040518082805190602001908083835b6020831061385f5780518252601f199092019160209182019101613840565b6001836020036101000a03801982511681845116808217855250505050505090500191505060006040518083038185875af1925050503d80600081146138c1576040519150601f19603f3d011682016040523d82523d6000602084013e6138c6565b606091505b50915091506138d68282866138e7565b979650505050505050565b3b151590565b606083156138f6575081610adf565b8251156139065782518084602001fd5b60405162461bcd60e51b8152602060048201818152845160248401528451859391928392604401919085019080838360008315612bbe578181015183820152602001612ba6565b828054828255906000526020600020908101928215613988579160200282015b8281111561398857823582559160200191906001019061396d565b50613994929150613998565b5090565b5b80821115613994576000815560010161399956fe45524332303a207472616e7366657220746f20746865207a65726f206164647265737345524332303a206275726e20616d6f756e7420657863656564732062616c616e63654f776e61626c653a206e6577206f776e657220697320746865207a65726f206164647265737345524332303a20617070726f766520746f20746865207a65726f206164647265737345524332303a207472616e7366657220616d6f756e7420657863656564732062616c616e6365416464726573733a20696e73756666696369656e742062616c616e636520666f722063616c6c4e6574776f726b206665652070657263656e746167652063616e6e6f74206265206d6f7265207468616e203430254d6178696d756e20616d6f756e74206d7573742067726561746572207468616e206d696e696d756e20616d6f756e74437573746f6d206e6574776f726b206665652074696572206d7573742067726561746572207468616e2074696572203250726f66696c652073686172696e67206665652070657263656e746167652063616e6e6f74206265206d6f7265207468616e20343025536166654d6174683a206d756c7469706c69636174696f6e206f766572666c6f7745524332303a207472616e7366657220616d6f756e74206578636565647320616c6c6f77616e63654f776e61626c653a2063616c6c6572206973206e6f7420746865206f776e657245524332303a206275726e2066726f6d20746865207a65726f2061646472657373437573746f6d206e6574776f726b206665652070657263656e746167652063616e6e6f74206265206d6f7265207468616e2074696572203245524332303a207472616e736665722066726f6d20746865207a65726f206164647265737345524332303a20617070726f76652066726f6d20746865207a65726f20616464726573735361666545524332303a204552433230206f7065726174696f6e20646964206e6f7420737563636565645361666545524332303a20617070726f76652066726f6d206e6f6e2d7a65726f20746f206e6f6e2d7a65726f20616c6c6f77616e636545524332303a2064656372656173656420616c6c6f77616e63652062656c6f77207a65726fa264697066735822122009c4f9af861a96a590cb7b3375a78cd248a529b35fd3444ee02cbf4d3f91231464736f6c63430007060033416464726573733a20696e73756666696369656e742062616c616e636520666f722063616c6c5361666545524332303a204552433230206f7065726174696f6e20646964206e6f7420737563636565645361666545524332303a20617070726f76652066726f6d206e6f6e2d7a65726f20746f206e6f6e2d7a65726f20616c6c6f77616e6365",
  "linkReferences": {},
  "deployedLinkReferences": {}
}